:020000040000FA
:1000000002180002180351C052032202180B1A846E
:020010001A894B
:070013000218131B421B47FA
:07001B0002181B1B5B1B60B8
:070023000218231B741B7976
:07002B0002182B1BB51BBAE4
:070033000218331A571A618D
:07003B0002183B1B3D1B7E78
:100043000218431BBF7F032202184BE4FF022D68F3
:06005300021853024149AE
:06005B0002185BA2132253
:0700630002186375C80122B9
:06006B0002186B02523185
:1000730002187300000000000000000000000000F0
:10008300000000000000000000000000000000006D
:10009300000000000000000000000000000000005D
:1000A300000000000000000000000000000000004D
:1000B300000000000000000000000000000000003D
:0217F8000000EF
:07180000022A5CE5F7132248
:101808007FB8EF90181393901900730A20364CE5AF
:1018180069FF22EFF569225A2D5761766520342E2B
:101828003534000248BE000E0D44000E1064000E50
:1018380015DC020202063F3F3F0404041B4C1B5107
:021848001B562D
:10184B00024C4AC2D5E830E70FB2D5E4C39BFBE4A8
:10185B009AFAE499F9E498F8EC30E717B2D5121834
:10186B0084121F7EE4C39BFBE49AFAE499F9E49893
:10187B00F88003121F7E30D50DE4C39FFFE49EFE5C
:10188B00E49DFDE49CFC22788CE4F6D8FD900000EE
:10189B007F007E10E4F0A3DFFCDEFA904FFFA3E5A0
:1018AB0083C394204011FEAF829020000E0FE48082
:1018BB0002F0A3DFFCDEFA121920022A6E22323F5D
:1018CB00241E16110E0B09070504030201F0C8A70D
:1018DB00917767604638353230242220140001019D
:1018EB00020203030404050506060707822D1C16D6
:0418FB0013111010A5
:10190000C0697419C0E0C082C08375690AE5FF54DC
:10191000CF4490F5FF22C0697419C0E0C082C08333
:10192000756920E5FF54CF4490F5FF22C069741912
:10193000C0E0C082C083756936E5FF54CF44A0F58E
:10194000FF22C0697419C0E0C082C08375694CE58C
:10195000FF54CF44B0F5FF22909807211690A7F4CA
:10196000211690A7FE211690B02D211690B030219F
:101970001690B65C211690BFEE211690BFF121168D
:1019800090BFF8211690C34F2116908F7F2116909B
:10199000C3BE2116909AD7211690C00B2116909C99
:1019A00026211690C77F211690C79A211690C80449
:1019B0002116909020211690C51F211690C829212C
:1019C000169084F4211690A817211690C86121164C
:1019D00090C879211690C87F211690AF6D2116907E
:1019E000C9852116909088211690CD41211690CD61
:1019F00056211690CD5C211690CD96211690CDB92A
:101A0000211690A5DA211690B6C4211690991B21B3
:101A1000169098CA21169098E221169098272116C0
:101A200090CEB0211690C462211690CC7D211690E4
:101A3000C460211690CEE1211690CB9E211690BF56
:101A40007B211690893B2116909C56211690B681D9
:101A5000211690B069211690CFB62116909593214A
:101A60001690CFFD211690B0B6211690D0282116E1
:101A700090D06D211690D08B211690D0DB2116903E
:101A8000D0E9211690D155211690C405211690B6A3
:101A900048211690D164211690CDA7211690D2F13D
:101AA000211690A7EC2116908101214290813C21C2
:101AB0004290819221429083FD214290AA84212C60
:101AC000909BB6212C90AC50212C909EF1212C9013
:101AD000ABA5212C90B1B9212C90B15C212C90B2F6
:101AE00005212C9094EA212C90B20E212C90B21753
:101AF000212C90B05C212C90B231212C90B23C2151
:101B00002C90B0AA212C90B250212C90B25B212CA9
:101B100090865D212C90B26F212C90B27A212C906E
:101B2000B023212C90B28E212C90B299212C90B20E
:101B3000AD212C90B2B3212C90B2B4212C90B3984B
:101B4000212C90805D212C90B387212C90B54521CC
:101B50002C90B57E212C9081FE212C90A0FF212C71
:101B600090B5BC212C909362212C90B916212C9019
:101B70009551212C90B96E212C909094212C909FFE
:101B8000D0212C90A909212C90A875212C90AF6C04
:101B9000212C90A92C212C90A873212C90AC4621AB
:101BA0002C90AF01212C909C90212C90825D212CB7
:101BB00090A07E212C90A0DE212C90A119212C90A8
:101BC000AA0F212C00E709F608DFFA8046E709F2A0
:101BD00008DFFA803E88828C83E709F0A3DFFA8071
:101BE00032E309F608DFFA8078E309F208DFFA80C9
:101BF0007088828C83E309F0A3DFFA806489828A8B
:101C000083E0A3F608DFFA805889828A83E0A3F292
:101C100008DFFA804C80D280FA80C680D480698048
:101C2000F28033801080A680EA809A80A880DA80D3
:101C3000E280CA803389828A83ECFAE493A3C8C520
:101C400082C8CCC583CCF0A3C8C582C8CCC583CC20
:101C5000DFE9DEE7800D89828A83E493A3F608DF5B
:101C6000F9ECFAA9F0EDFB2289828A83ECFAE0A371
:101C7000C8C582C8CCC583CCF0A3C8C582C8CCC5B2
:101C800083CCDFEADEE880DB89828A83E493A3F2F7
:101C900008DFF980CC88F0EF60010E4E60C388F059
:101CA000ED2402B4040050B9F582EB2402B4040020
:101CB00050AF2323458223901C1573BB01068982F4
:101CC0008A83E0225002E722BBFE02E32289828A55
:101CD00083E49322BB010B89828A83F8E0C828F051
:101CE000E822500327C722BBFE07F8E3C828F3E821
:101CF000228A838982E49322BB010CE58229F58242
:101D0000E5833AF583E0225006E92582F8E622BB16
:101D1000FE06E92582F8E222E58229F582E5833A8A
:101D2000F583E49322BB010989828A83F8E028F0D5
:101D300022500327F722BBFE05F8E328F3228A830B
:101D40008982F8E4932822BB010FF8E58229F58205
:101D5000E5833AF583E028F0225009C58229F8E5A9
:101D60008226F622BBFE09C58229F8E22582F222EC
:101D7000F8EA2583F583E9932822BB010689828A44
:101D800083F0225002F722BBFE01F322F8BB010DC3
:101D9000E58229F582E5833AF583E8F0225006E9E9
:101DA0002582C8F622BBFE05E92582C8F222EF8D06
:101DB000F0A4A8F0CF8CF0A428CE8DF0A42EFE22A3
:101DC000BC000BBE0029EF8DF084FFADF022E4CC07
:101DD000F875F008EF2FFFEE33FEEC33FCEE9DECD0
:101DE000984005FCEE9DFE0FD5F0E9E4CEFD22ED16
:101DF000F8F5F0EE8420D21CFEADF075F008EF2F60
:101E0000FFED33FD4007985006D5F0F222C398FD50
:101E10000FD5F0EA22C5F0F8A3E028F0C5F0F8E508
:101E200082158270021583E038F022A3F8E0C5F035
:101E300025F0F0E582158270021583E0C838F0E8DD
:101E400022BB010A89828A83E0F5F0A3E0225006D2
:101E500087F009E71922BBFE07E3F5F009E3192231
:101E600089828A83E493F5F074019322BB010DC546
:101E70008229C582C5833AC583021E155011C582C9
:101E800029F808E5F026F618F5F0E58236F622BBCB
:101E9000FE11C58229F808E225F0F5F0F218E235C6
:101EA00082F222F8E58229F582E5832AF58374011E
:101EB0009325F0F5F0E4933822BB010A89828A83E6
:101EC000F0E5F0A3F0225006F709A7F01922BBFEB7
:101ED00006F3E5F009F31922EF2BFFEE3AFEED3998
:101EE000FDEC38FC22C3EF9BFFEE9AFEED99FDEC72
:101EF00098FC22E88FF0A4CC8BF0A42CFCE98EF0A7
:101F0000A42CFC8AF0EDA42CFCEA8EF0A4CDA8F061
:101F10008BF0A42DCC3825F0FDE98FF0A42CCD3525
:101F2000F0FCEB8EF0A4FEA9F0EB8FF0A4CFC5F08F
:101F30002ECD39FEE43CFCEAA42DCE35F0FDE43C88
:101F4000FC2275F008758200EF2FFFEE33FECD33D3
:101F5000CDCC33CCC58233C5829BED9AEC99E5821A
:101F600098400CF582EE9BFEED9AFDEC99FC0FD5A6
:101F7000F0D6E4CEFBE4CDFAE4CCF9A88222B80096
:101F8000C1B90059BA002DEC8BF084CFCECDFCE561
:101F9000F0CBF97818EF2FFFEE33FEED33FDEC3385
:101FA000FCEB33FB10D703994004EB99FB0FD8E50A
:101FB000E4F9FA227818EF2FFFEE33FEED33FDEC53
:101FC00033FCC933C910D7059BE99A4007EC9BFC49
:101FD000E99AF90FD8E0E4C9FAE4CCFB2275F010D5
:101FE000EF2FFFEE33FEED33FDCC33CCC833C810FA
:101FF000D7079BEC9AE899400AED9BFDEC9AFCE828
:1020000099F80FD5F0DAE4CDFBE4CCFAE4C8F92274
:10201000EF5BFFEE5AFEED59FDEC58FC22EF4BFF53
:10202000EE4AFEED49FDEC48FC22C3E49FFFE49E2E
:10203000FEE49DFDE49CFC22EB9FF5F0EA9E42F05D
:10204000E99D42F0EC6480C864809845F022EB9FE3
:10205000F5F0EA9E42F0E99D42F0E89C45F022E866
:10206000600FECC313FCED13FDEE13FEEF13FFD86E
:10207000F122E8600FEFC333FFEE33FEED33FDECEA
:1020800033FCD8F122BB010789828A8302210C50DC
:1020900005E9F80222CFBBFE05E9F80222DB22E0C7
:1020A000FCA3E0FDA3E0FEA3E0FF22E493FC7401A7
:1020B00093FD740293FE740393FF22E0F8A3E0F90A
:1020C000A3E0FAA3E0FB22E493F8740193F974020D
:1020D00093FA740393FB227401FF3395E0FEFDFC39
:1020E000A3A3A3E02FFFF0E582158270021583E021
:1020F0003EFEF0E582158270021583E03DFDF0E5BD
:1021000082158270021583E03CFCF022ECF0A3ED16
:10211000F0A3EEF0A3EFF022A8828583F0D083D065
:102120008212212F12212F12212F12212FE473E46A
:1021300093A3C583C5F0C583C8C582C8F0A3C58372
:10214000C5F0C583C8C582C822A42582F582E5F002
:102150003583F58322E0FBA3E0FAA3E0F922F8E05F
:10216000FBA3A3E0F925F0F0E58215827002158348
:10217000E0FA38F022EBF0A3EAF0A3E9F022BB0189
:102180000789828A830221555005E9F80222E7BBBC
:10219000FE05E9F80222F989828A8302230BBB013A
:1021A0001A89828A83D0F0D0E0F8D0E0F9D0E0FA42
:1021B000D0E0FBE8C0E0C0F00221755016E9F8D08D
:1021C00083D082D0E0F9D0E0FAD0E0FBC082C083B7
:1021D0000222F0BBFE16E9F8D083D082D0E0F9D01D
:1021E000E0FAD0E0FBC082C08302230222BB010DD3
:1021F000E58229F582E5833AF5830221555007E906
:102200002582F80222E7BBFE07E92582F80222F9BF
:10221000E58229F582E5833AF58302230BBB012091
:10222000E58229F582E5833AF583D0F0D0E0F8D055
:10223000E0F9D0E0FAD0E0FBE8C0E0C0F0022175A0
:102240005018E92582F8D083D082D0E0F9D0E0FAA6
:10225000D0E0FBC082C0830222F0BBFE18E92582D9
:10226000F8D083D082D0E0F9D0E0FAD0E0FBC08291
:10227000C08302230222D083D082F8E493701274C8
:102280000193700DA3A393F8740193F5828883E4FE
:10229000737402936860EFA3A3A380DF8A838982AB
:1022A000E473EC8EF0A4CCC5F0CCCDF8EFA4CEC591
:1022B000F02DFDE43CFCE8A42EC8C5F03DFDE43C57
:1022C000FCEFA4FFE5F028FEE43DFDE43CFC22EC3D
:1022D000F608EDF608EEF608EFF622ECF208EDF25D
:1022E00008EEF208EFF222E6FB08E6FA08E6F92229
:1022F000EBF608EAF608E9F622E2FB08E2FA08E261
:10230000F922EBF208EAF208E9F222E493FB740105
:1023100093FA740293F92249444C455F4D4F44456A
:10232000000053544F505F4D4F4445005755545F84
:102330004D4F4445005755545F464153545F4D4FF0
:102340004445004652455155454E54494C595F4C01
:10235000495354454E494E475F4D4F444500494E01
:10236000545F4D41534B5F455854310057414B45E5
:1023700055505F52455345540057414B4555505FAA
:102380005755540057414B4555505F53454E534F99
:10239000520057414B4555505F5741544348444FB5
:1023A000470057414B4555505F4558545F494E547F
:1023B0000057414B4555505F504F520057414B45D8
:1023C00055505F5553425F53555350454E44000D91
:1023D0000A57616B6575703A000D0A00536F667499
:1023E000576172652056657273696F6E20312E30A9
:1023F0002E300D0A004C6561726E436F6D706C6516
:102400007465640D0A004C6561726E20636F6D70B7
:102410006C65746520005472616E73706F72745FC6
:102420004170706C69636174696F6E436F6D6D614B
:102430006E6448616E646C65720D0A0068616E645A
:102440006C65436F6D6D616E64436C61737356654B
:102450007273696F6E4170706C0D0A0068616E6412
:102460006C654E62724669726D776172655665720F
:1024700073696F6E730D0A0068616E646C65476501
:10248000744669726D7761726556657273696F6EB5
:102490000D0A0068616E646C65426173696353651F
:1024A00074436F6D6D616E640D0A006765744170F1
:1024B0007042617369635265706F72740D0A0047F0
:1024C00065744D794E6F646549440D0A00476F206D
:1024D000746F20736C6565702077697468206D6F08
:1024E00064653A002C6D61736B3A002C74696D65FC
:1024F0006F75743A00536574506F776572446F77E7
:102500006E54696D656F757457616B657570537442
:10251000617465436865636B3A00526576697369F7
:102520006F6E3A002C53415742616E645769647470
:10253000683A002C555549443A006E6F64656964E9
:102540003A002C52664661696C436E743A006D69BC
:1025500073635F7A775F73656E645F6D6F74696FC5
:102560006E5F636F6D706C657465640D0A006D69F4
:1025700073635F7A775F73656E645F6D6F74696FA5
:102580006E3A002C006D6973635F7A775F73656ED6
:10259000645F6D6F74696F6E207265743A006D6967
:1025A00073635F7A775F73656E645F6D6F74696F75
:1025B0006E5F646F6E650D0A006D6973635F7A7795
:1025C0005F73656E645F626174746572790D0A0091
:1025D0006D6973635F7A775F73656E645F62617460
:1025E000746572795F646F6E650D0A006D6973635F
:1025F0005F7A775F6C6561726E0D0A006D69736357
:102600005F7A775F6C6561726E5F646F6E65286E6E
:102610006F646569643A00290D0A006D6973635F30
:102620007A775F72657365740D0A006D6973635F15
:102630007A775F72657365745F646F6E65286E6F1D
:10264000646569643A007461736B2072756E20660C
:1026500061696C65642077697468203A004B65791C
:1026600020507265737365643A004E6F2050657236
:10267000736F6E205369676E616C3A004861732016
:10268000506572736F6E205369676E616C3A004ECD
:102690006F7420496E6C63756465642C20446F27E9
:1026A00074206465616C204D6F74696F6E2053698E
:1026B000676E616C3A006C6564206F6E0D0A006C89
:1026C0006564206F66660D0A006C656420746F6730
:1026D000676C650D0A006C656420626C696E6B0D39
:1026E0000A005E855986725A7380718400001ACA86
:1026F0001ACF4127CB004102D300410437060136EF
:10270000004104360141043501C114013C00013986
:1027100000C11DC117C10B41248E004124F4FF41AB
:1027200024EC00C10AC1094124F5004124F600410E
:1027300024ED01C10D41248D00C111011000C10E15
:10274000C10F412C5C00C12C432A8B000000412AA0
:102750008A00412A8E00C118C11A4F242FFF26E299
:102760000AFF26EC01FF26ED010207014624148032
:102770000371055A01605C237C710720014261737B
:102780006963207365740000000000000000000011
:102790000000000000000000000000000000000039
:1027A00000000000000000710771054E6F7469663B
:1027B00069636174696F6E207265706F7274000076
:1027C0000000000000000000000000000000000009
:1027D0000000000000412489FF41247FFF4423784A
:1027E00000000000603C23D80000FF1AE3FF1AE855
:1027F000FF1AED000100FF1AF2FF1AF7FF1AFC00A2
:102800000200FF1B01FF1B06FF1B0B000300FF1B49
:1028100010FF1B15FF1B1A000400FF1B1FFF1B24CA
:10282000FF1B2900492476FF1AD4FF1AD9FF1ADEAC
:10283000522464FF2317FF2321FF2322FF232CFFB1
:102840002335FF2343492480FF2321FF2321FF2336
:102850005E55241AFF236CFF2379FF2384FF239204
:10286000FF23A2FF23B1FF23BC41248BFF42237629
:102870000000412462014124630141248A03412470
:102880006100E00C02602C00000303000300030160
:102890005F0436442A2C00000000412A2900412A06
:1028A0002A00412936004129370042292F000045DE
:1028B00029310000000000412B1CFF412B1B04C1EB
:1028C000AD412B1900609625440000000000000077
:1028D00000000000000000000000000000000000F8
:1028E00000000000000000000000000000000000E8
:1028F00000000000000000000000000000000000D8
:1029000000000000000000000000000000000000C7
:1029100000000000000000000000000000000000B7
:1029200000000000000000000000000000000000A7
:102930000000000000000000000000000000000097
:102940000000000000000000000000000000000087
:10295000000000000000000000000000000000492E
:1029600026D04C6966656C696E65004126DA0041C7
:1029700026D901C1B241277D004127860041278A1F
:102980000041278900412785004127800042277E9A
:10299000000042278C0000432B9E000000412BA129
:1029A00000432A38000000412A3D00C13441295C1F
:1029B00000412C720041287AFF4428750000000075
:1029C00044287B000000004128800041287900C194
:1029D0003842280D000042280F000047280500005B
:1029E0000000000000009026F2E47E0193700122B6
:1029F000A3FF543F30E509541FFEE493A360010E8A
:102A0000CF54E0B4E03AEFFAEEF9E493FBA3E49399
:102A1000FEA3E493FFA3E493FDC083C082C001C082
:102A200002C006C00712197BD007D006D002D00121
:102A3000D082D083A30FEF70010EDADAD9D880A943
:102A400054C025E060105005A3DFFD809CA3A3A324
:102A5000DFFDDEFB8093A3A3DFFD808D75818C7588
:102A6000FF03759E0212192002323C0218C89026FC
:102A7000F2E47E019360F4A3FF543F30E509541F54
:102A8000FEE493A360010ECF54E0B4E00EEFFAEE43
:102A9000F9A3A3A3A3DAFDD9FB80D654C025E06037
:102AA0004B5026E493A3F85407240CC8C333C454F2
:102AB0000F4420C8834004F456800146F6DFE480CA
:102AC000B00102040810204080E493A3FAE493A329
:102AD000F8E493A3C8C582C8CAC583CAF0A3C8C511
:102AE00082C8CAC583CADFE9DEE78085E493A3F81C
:102AF000E493A34003F68001F208DFF4022A711A7E
:102B00000C1A111A161A1B1A201A251A2F1A3E1AF5
:102B1000431B831B881B8D1B921B971B9C1BA11B9C
:102B2000A619AD19C119CB19D019D519DF1B651B11
:102B30006A1B6F7F01B1689027C3E01222762B5A7F
:102B4000042B62142B67152B6C172B7C302B8134D4
:102B50002B86362B8B3700002B74535CEF855C8003
:102B6000802F535DEF8008535DDF8003535D7F85C9
:102B70005D90801D535EDF855EA08015535FFE80F3
:102B80000D535FEF8008535FBF8003535F7F855F06
:102B9000B07F0CDFFE227F01B168902C4B7401F0F6
:102BA000902C4BE0602ED1E79132902C4BEFF091BE
:102BB000E691219027BFEFF091E6902C4BE0540175
:102BC000F1CE60DCA3E0F460D7EF30E7D3E4902CE3
:102BD0004BF080CC71377F9F911991329027C09133
:102BE000309027C591309027C6EFF0B1649027BE92
:102BF000E0F4601BA3E0F460169027C5E0FD541FCD
:102C0000240FA3F0EDC413540744809027C5F0228D
:102C100012209F780812205FE4E5C820E2FB8FEBCA
:102C20002271377FD791197FFF911991369027BE76
:102C3000EFF07FFF9119E5C820E2FBAFEB227F01A7
:102C4000B168301F14D1E79132902C4DEFF091E62E
:102C5000902C4DE020E002C21F301F1791219027D9
:102C6000BFEFF1CE600BA3E0F46006EF30E702C2E5
:102C70001F91E6E4FFB168A21FE433FF229029020E
:102C800012210C902906122175D194913EEF600417
:102C9000D17F80F791DA7137D1A3600A90290212AF
:102CA000209F7810911590290291109029021220EE
:102CB0009FE4801C902909F1E860199029061221EF
:102CC00055EA494B6008902906E4F1DF8001E4FFF2
:102CD000911980E091E6E4FFA1687F01B168D21FFD
:102CE00071377F069119124896EF70FA9027C5E068
:102CF000F4600A902C4A7406F0F1D670FC9027C359
:102D0000E01222762D20042D28142D2D152D32179A
:102D10002D42302D47342D4C362D513700002D3AA1
:102D2000435C10855C80802F435D108008435D20EC
:102D30008003435D80855D90801D435E20855EA09D
:102D40008015435F01800D435F108008435F408022
:102D500003435F80855FB0902C4A740CF0F1D6700D
:102D6000FC22911991E6E4FFEFB4010443FE202216
:102D700053FEDF22902AD712210C902AD712209FCF
:102D8000B1BB902ADBE06F6030D194913EEF6004DC
:102D9000D17F80F791DA7137D1A3600A902AD712D8
:102DA000209F78109115902AD79110902AD7D1E1C1
:102DB000902ADBE0FFB162D322C322902AD21221F3
:102DC0000CD194913EEF6004D17F80F771337F0383
:102DD000D1A8600A902AD212209F78109115902ACB
:102DE000D29110902AD2D1E19132902AD6EFF0B14F
:102DF00064902AD6E0FF22D194913EEF6004D17F07
:102E000080F791DA71377F0191197F03911991E66B
:102E1000E4FFA16890290B12210C90290F12217553
:102E2000D194913EEF6004D17F80F771337F03D15D
:102E3000A8600A90290B12209F7810911590290BF9
:102E4000911090290BD1E1902912F1E86011913293
:102E500090290F1258F3902910E412491B80E89131
:102E6000E6E4FFA1689027BEE020E01271337F3DC9
:102E700091197F2A91197F8091197FA6B16222E56D
:102E80003730E20FE53720E50AE53730E0057F010E
:102E900012354E2275FF02E5E430E10675E4067551
:102EA000E403229027C1E0FF91199027C4E0640257
:102EB00022902C4CEFF09027CCE06402702271330A
:102EC000902C4CE07FAB60027FB9911991E6902C79
:102ED0004CE09027CBF070047F1EDFFEE4FFB1686A
:102EE0002212209FE4811971377F05811990288D66
:102EF00012210C9028911221751258C69028941214
:102F0000401990288D12209F12387B5002E1B79013
:102F100027C8E024FFFF9027C7E034FFFEE4FCFD54
:102F200090288D1220BB122010902896EEF0A3EF6F
:102F3000F04E6036F1B9C39027C8E09FFF9027C7D5
:102F4000E09EFE902896F0A3EFF09028941259701E
:102F50009E5006A3ECF0A3EDF0125881E94A6004FC
:102F6000F1B980467E007F008040902894E0FEA367
:102F7000E0FF4E60409027C7E0FCA3E0FDD3EF9D4B
:102F8000EE9C400A902896ECF0A3EDF0800D90287E
:102F900094E0FFA3E0A3CFF0A3EFF0125881E94A39
:102FA0006004F1B980047E007F00902892EE8FF0DB
:102FB000121E1580B5D322C322902896E0FEA3E00E
:102FC000FF22D194913EEF6004D17F80F722F090F0
:102FD00027BEE0FFF422902C4AE014F0E022E475D2
:102FE000F00112215E021CBB74FFF5F0121E2B458E
:102FF000F0229027C0E0121D7A9027C5E01247EB1F
:103000009027C6E0900002021D8C7A2779C37F03C7
:10301000F1E87A2779CC7D017F08121AAC7A2779FA
:10302000C97F0931CF7A2779C77F0B31CF9027C766
:10303000E0FEA3E0FF4E6006BEFF1CBFFF19902715
:10304000CCE024FD600304700531D6F080099027A0
:10305000C7E4F0A37440F09027CCE024FD600304A3
:1030600070089027C47403F080069027C47402F09F
:103070009027C3E0122276309304309E1430A615B8
:1030800030AE1730C43030CC3430D43630DC37007A
:103090000030B975FF015358EF8558FD804775FF23
:1030A000015359EF800E75FF015359DF800675FFFC
:1030B0000153597F8559C9802C75FF01535ADF850B
:1030C0005ACA802175FF01535BFE801675FF0153BC
:1030D0005BEF800E75FF01535BBF800675FF0153E8
:1030E0005B7F855BCB122CE67F1131C1E4FF122E92
:1030F000B1122B969027C17402F09027C5E0247F6F
:10310000600904701731C7740A8007122E6531C731
:103110007458F09027C47403F031D6F09027C6E0BD
:10312000F4600221BE9027C9E0FEA3E0FF64104EC8
:1031300070069027C6740EF0EF64204E700690273C
:10314000C6740FF0EF64404E70069027C67410F0FE
:10315000EF64804E70069027C67411F0E4B5070A3C
:10316000EEB401069027C67412F0E4B5070AEEB477
:1031700002069027C67413F0E4B5070AEEB40406FD
:103180009027C67414F0E4B5070AEEB40806902739
:10319000C67415F0E4B5070AEEB410069027C6749D
:1031A00016F0E4B5070AEEB420069027C67417F0AF
:1031B000E4B5070AEEB440069027C67418F0022D55
:1031C000F7EF4420F5FE227F1031C19027C1227B0A
:1031D000017D02021AAC9027C77401F0A3E422110A
:1031E0000A121A8E1219E912195D9002D4E06401D4
:1031F0007F0060027F01121A4D121A521219BC127E
:1032000051A81258D812196CF1E0FE4FFDA3E0FC52
:103210004DFDA3E0FB4D600BEE5FFFEC5FFFEB5F4E
:10322000F47002B16590121BE0FF540324D7F582BD
:10323000E43402F583E06F9002D2F02275FF02754C
:10324000E404E4F5E4C21375FF02901215E0603C5B
:10325000E5E6540364017034121A751250174020C9
:10326000901223E0600DE014F07008121892E490C0
:103270001215F0901215E0700261031241166103FD
:10328000121892D213E4901215F08077121892124D
:10329000525A9002D4EFF0901200E0B47A149012D7
:1032A00014E0B49C0D9002D4E0FF64056004EFB418
:1032B000032EE49002DDF09002DDE0FFC394405065
:1032C00013E42FF582E43412F583E4F09002DDE09C
:1032D00004F080E3901200747AF0901214749CF061
:1032E000121AB17B017A1279107D017F01121AAC9A
:1032F0007A1279117F21F1E87A1279127D017F2209
:10330000121AAC121A7A12525A121A709002D4EF90
:10331000F01219FD121A6B9002D4E0FFB40602807D
:103320000C3013047F0280059002D4E0FF121ABB18
:10333000EF24FFB3922C75FF0253E6BF9002D4E056
:1033400064016005E4901215F01248A2121A7F3150
:10335000DF901215E0700F202C0C121AC07B017A3E
:103360002479F8121A3490121EE030E00280033003
:1033700013047F01B14ED2AF301303121A02302C66
:1033800078121958121994121B33121AA740F2908E
:1033900002D3E06042121A98EF700512591F4037AD
:1033A000E53670FCE53720E502B1D0121967EF7001
:1033B000FA12521F500512520B50057F01122EB106
:1033C0009002D3E0B40204E4FF80099002D3E0B499
:1033D00003057F0112412B121A93E53730E1A2D188
:1033E0004C4002E4F0E53720E50691BB7D0191CD2C
:1033F0009002DD91BED13B808812480712414F50A8
:1034000002B1659002D3E0605E90248EE0705812A5
:103410001A98EF700512591F404DE53670FCE537DC
:1034200020E50990121EE020E002B1D0121967EFEA
:1034300070FA12521F500512520B50057F01122EC6
:10344000B19002D3E0B40203E480189002D3E0B458
:1034500003047F01800E9002D3E0B4050A90121598
:103460007401F0FF12412B121958121994121AC547
:103470009002D1E07005121A938015124843FF9014
:1034800002D1E0FEC3EF9EC394014002E4F0D2AD4E
:1034900012000AE53730E118D14C4002E4F0E5377C
:1034A00020E50691BB7D0191CD9002DD91BED13B1F
:1034B000121A5C1251D912486261F99002D5E07576
:1034C000F0AA9002E0122149AF82AE832290045507
:1034D000EEF0A3EFF0E5367070123D7D5004C22887
:1034E000B1F9900455E0FEA3E08E31F532AE31AF74
:1034F000327DAA12534BE4F5FF75D901F530E5375B
:103500005421602CE53730E505E4FF124C2FE490A0
:103510000457F0900457E004F01246CBEF60099096
:103520000457E0C3941040EB7F02121B2E5337DE8A
:10353000124F505005E004FF80027F00124C20D251
:1035400028B1F9D2EBA21292ED22EFF07F01EF60E9
:103550000891BBE4FD91CD8009121A9DB1D0E433EE
:10356000FF227F0122E4FFB14EEF60427B017A022D
:1035700079D7B1AF9002D7E0C394C040EF7B017A16
:103580000279D9B1AFF1E05FFFA3E05FFFA3E05F95
:10359000F460EA90121EE030E0047F01B14EE49046
:1035A000121BF07B017A0279D7E0FD12197122908B
:1035B0000458122175C221E4FFB14EBF010B9004E3
:1035C0005812215512448392217F01B14EA221222B
:1035D000E5367023123D7D5004C228B1F912509A8D
:1035E000124DBBE5D120E0FB4337205337FEE4F515
:1035F00030A21292EDD322C322902C4EE5F4F0E0DB
:10360000547FF5F47F827E00D165F1BE5005E5FC64
:1036100020E6F7302808902C4EE04480F5F4D16184
:10362000F1BE5005E5FC20E6F775FF01E5D520E782
:1036300002C322E5F4D330E601C3229002D6E0FDB6
:103640000219E4C2AFEFF45237D2AF227F02D14366
:103650009002D5E09002DDF09002D504F0C3940210
:10366000227FE87E03D16A023FB4902B36EEF0A3AE
:10367000EFF07B017A2B7938F1C95014902B38E0A8
:10368000FEA3E0FF902B37E09F902B36E09E400B8F
:10369000902B36E0FEA3E0FF123FBB229029E312FD
:1036A0004176EBF09029E97401F0C227D161F1BEB7
:1036B0005005E5FC20E6F7124DC7BF0108E4F5FC14
:1036C00075FC408008124DC7BF0202D32275FF016E
:1036D00053D8EF9029E4E0FF1255D975FF0153D577
:1036E000DF53FAFB9029E3E0FF124C2F9029E4E02E
:1036F0009029E3B408111246801247F1FEA3E0249A
:10370000521245E5FC80031242F71247A39029E5C7
:10371000E0FF12560375FF0175FF03759B04D1612D
:1037200075FC42E5FC20E104F1BE40F49029E6E09E
:10373000F075FF03E59B20E704F1BE40F4E59B2014
:10374000E70D75FF03759B1F1250A1D227805B7B8D
:10375000017A2979E9124F889029E4E0FD90120F4F
:10376000E05D70219029E3E0FF7B017A2979E9127D
:103770004A0A90120FE0FF9029E4E0FEEF4E90120B
:103780000FF0124461124EE97B017A2979E7F1C901
:10379000500FC39029E8E094209029E7E09403407B
:1037A000E77B017A2979E91253C71246C230270212
:1037B000C1A49029E9E0B40103D38001C32275FFBD
:1037C00003E591C330E701D322124EBEAD94EF4D15
:1037D000124F1B8FF0121EB9E591C330E701D322BF
:1037E0009002D7E0FFA3E0227B017D01121AAC7B9F
:1037F0000122E075F002A42481F9740F35F07B02F8
:10380000FEAF01E4FCFD022DBBFAA3E07E0029F926
:10381000EE3AFEAF01E4FDAB05E4FCFD902ADBEBE4
:10382000F0022D74FEAF017B007A007982902A5F4E
:103830007404F0902A5C122175E4FCFDC007902A04
:103840005C122155902A5FE0FF902912E4F0A3EF6B
:10385000F0D007022E149029D0122175E4FCFDC08F
:10386000079029D01221559029D3E0FFA3E090289A
:1038700094CFF0A3EFF0D007022EED90270F122186
:103880000C902713122175E4902736F0D390271758
:10389000E0941E902716E094004001227B017A27D5
:1038A0007918902716E0FFA3E0902912CFF0A3EF3C
:1038B000F090270F12209F122E14902713122155DB
:1038C000E94A600B902736E0F58211FFFF80027F06
:1038D00000902736E02418F582E43427F583E06F62
:1038E0006002C322902736E004FFF0D3902717E050
:1038F0009F902716E0940050C1221221558E8275A8
:103900008300021CF8315C3143E49029CDF090290A
:10391000CC12594650229029C911FAFF31809029C2
:10392000CDE0540FFFBF0F04314380047F20317876
:103930009029CDE004F080D69029CDE0540F6002AC
:103940003143227F0D31787F0A802D7BFF315C90DF
:10395000248AE0FF31807BFF7A2379D9902C1712DB
:103960002175902C175142600B902C17122FDEFFFF
:10397000317880EE22FF3194E5ED20E0FB8FEF22DD
:10398000902C77EFF0E0C4540F3175902C77E0FF66
:10399000319480E4EF540FFFD39409EF50042430A6
:1039A000FF222437FF22902C76EFF075F00A843145
:1039B00075902C76E075F00A84AFF0319480B99060
:1039C0002A4C122175902A52E0C4540F31DE51075F
:1039D000121D8C902A52E031DE5107021D8CFF31FE
:1039E00094902A4F1221557401121CD4FE902A4C37
:1039F0001221558E82758300EF121D8C902A4F1272
:103A000021557401021CD4FF902A4C1221558F823B
:103A1000758300E422902A53122175902A59E0FF01
:103A2000902A5631FFFE902A531221558E82125948
:103A300088902A5631FFFF902A53510B021D8C901B
:103A4000044D122155021CBB90044D122175C2EB8E
:103A5000E53660028119E53730E202C322A2ED9219
:103A600012C2ED9129B1745460603F9129240391F1
:103A70003320E136902A65E06404602E912924BB4E
:103A80009121125980121D7A902A64740FF09004CB
:103A90004D122155902A61122175F1DF902A65742B
:103AA00005F0913AA21292EDD322513F540FFFBF7D
:103AB0000111E924EE9133700A90121CE090045039
:103AC000F0800E90044D1221551219F3900450EF1E
:103AD000F0E53720E05FB18540057F0112354E905B
:103AE00004507A047951124DF3E433912824EEF90D
:103AF000E43AFA7401121D25EF7002803475FF015B
:103B0000AFE4900450F1EBE0FE900451E0D39E400E
:103B100002801491299131FD513FFB1250C690044F
:103B200051EFF0E0FF7006D2EBD200810BEFB40250
:103B300004D2EB810B9129B1745460600E91292459
:103B400003913320E105E4902A65F0B1855005C268
:103B5000281235F9124DBBE5D120E0FBE4F530C267
:103B60001391292408F9E43ACFE9CFF5318F329146
:103B70002924B19133F538AE31125381912924B102
:103B8000912124E191332FFFE433FEEF2401FFE480
:103B90003EFE91299131D3124B9050057401121DB4
:103BA00025912924B2F9E43A8B40F54189429129C3
:103BB00024E19133F5439129B1745407900436F010
:103BC000753608912924B2F9E43AFA12537591290D
:103BD00024E19133FFAD3812539D7B01E4FDFF12C8
:103BE00053171259A6440CF5D2900450E091289135
:103BF000312418FBE433FA7D03B1B39129B174FF8A
:103C0000AEF0900450E0FDB18D4006A21292EDC3DB
:103C100022A21292EDD2EBD322A21292EDD2EBC3EA
:103C200022F9E43AFA121CBBFF90044D122155E927
:103C30002224B9F9E43AFA021CBB902A65E024FC7C
:103C40007002A150147002A149147002A1331470C3
:103C500002A15824066002A16DE5366002A16DC282
:103C6000EBB16E1219F3902C1AEFF0E53730E00249
:103C7000A130124DC7EF640160057F0112354E90EF
:103C80002C1A7A2C791B124DF34003D2EB22902C84
:103C90001AF1EBE0FE902C1BE0D39E4002802090B6
:103CA0002A64E0640F7024B16EE99131FD902A61BD
:103CB0005142FB1250C6902C1BEFF0E0FF7005D272
:103CC000EBD20022EFB40203D2EB22124F2CB16EE2
:103CD000E924E29133FFB16EE9B174FDACF0E4FB8D
:103CE000124FC5902C1AE0FDE4FFFEB18D503ED27C
:103CF000EB902A657402F01250BE7E00E4FCFD7B5E
:103D0000D07A127913F8121EF3E47BE87A03F9F8FB
:103D100012184EAB07AA06902C1AE0FF7D03B1B330
:103D20007E517FC07D147C001219B78003D2EB2234
:103D3000D2EB22E53720E50AE53730E0057F0112B6
:103D4000354E902A657403F022902A657401F022A2
:103D50001219B2B16E021AA2D200B16EF1E57B0067
:103D6000902A61F1F7E4902A65F01219C622902A90
:103D7000610221552404F9E43AFA021E41C2EBA281
:103D8000ED9212C2EDE5F4C330E701D322CCEDCCC5
:103D90004337015337DFCDECCD12499ACEECCECD6F
:103DA000EECD124BDA4004E4F536225337FB124CC9
:103DB00022D32290045BEFF0ED24FE6019146026FC
:103DC0002402703BEB2402FFE43AFE7C007D50129B
:103DD0001DAE7D60801ED128C333CE33CED8F9FF0F
:103DE0007C007D28800ED128C333CE33CED8F9FF96
:103DF0007C007D64121DC090045CEEF0A3EFF09097
:103E0000045BE012519AC083C0821220BB90045D13
:103E1000E02401FF90045CE03400FEE4FCFD121E8F
:103E2000D8D082D08302210CEB2401FFE43AFEEFCC
:103E3000780322900465EFF0C229F186D21B90042A
:103E400065E0902BB1F0D21CA3E4F0A37434F0D160
:103E5000D0E4900466F0B1855038900466E070328A
:103E6000E5F754C060F0D1A8D1BBBF5511D1BB90CC
:103E7000121BE06F90046670147402F080D89004F6
:103E800066E0B454057433F080CC9004667401F09D
:103E900080C4900466E0B40207C2281235F980009D
:103EA000D1C3900466E0FF22E5F720E008E5F7546F
:103EB000C070F5FF2243F701AFF922D1A890046644
:103EC000EFF022C21BE4902BB1F0C21CA3F0A3F0D0
:103ED00075FF01E5D520E702C322C229F186201B28
:103EE00002E17353F4DF902BB1E0FF124C2F75FF0A
:103EF0000143D810301C0543F440800353F4BFE461
:103F0000F5FF53F5F0902BB2E0FAA3E0FBEA42F59F
:103F1000EBF5F6D229F186F1AEE4F5FFE59320E664
:103F2000051237BE40F3301C5BE5F430E3047D2816
:103F30008010E5F430E2047D288007E5F430E102EA
:103F40007D28F1D87F28F1B01237BE40FB7F78F191
:103F5000B01237BE502EF1A750F7125609EFC39D8D
:103F600050EFF1A750EBE5F720E5E6C229F186F125
:103F7000D880DE53F4BF124F0B400943F42075FF85
:103F80000153D8EFD322AFF4EF547FF5F430290575
:103F9000EF4480F5F475FF01E5D520E702C322E583
:103FA000F4D330E601C32275FF01E5E433227FC874
:103FB0007E00F1BB75FF034391802275FF03D3EFB1
:103FC0009402EE9400400874FE2FFF74FF3EFEEF53
:103FD000F592EE540FF5912275FF03E4F591227BE3
:103FE000007A007900902A8B022175E0FF2402F507
:103FF00082E43421F583227A007900022175902928
:10400000D7122175E4FCFDC0079029D712215590E5
:1040100029DA1119D00702387BE0FFA3E0902716B8
:10402000CFF0A3EFF022E4F97D0CAC0109EC90187D
:104030001F93FC0FEFAA0670010E14F5828A83EC21
:10404000F0DDE70200488F828E83E4F0A374041150
:104050005974361159A3E4F022F08F828E83A3A302
:104060002275FF0275E40475E40175E4022275FF10
:104070000275E404E4F5E4229004523176EBF0900A
:10408000121EE05430600712005E5002C3229004FA
:1040900052E0B4040A11E29004527403F0802690B6
:1040A0000452E06405701311E290121EE030E50442
:1040B0007F1F80027F733149800B900453E0FB7DAA
:1040C00001E4FF11E9900452E09002D3F09004540F
:1040D000E0901223F01219A39002DEEEF0A3EFF0AD
:1040E000D322A3E0FB7D017F01EB600875FF015344
:1040F000CDFD800675FF0143CD02ED600553FBDF6A
:10410000800343FB20EF600775FF0243E140227507
:10411000FF0253E1BF227B0211E590121EE030E561
:10412000047F1F80027F7231497F0143FB1075FFBE
:104130000243E640EF600D75FF02E5E120E7FB4337
:10414000FB0D800343FB0E80FE75FF028FE3229080
:10415000121BE070111237E04FFFA3E04FFFA3E006
:104160004F7003D38001C3229002D2E064AA2411CD
:10417000FFF022EEF0A3EFF0A3EDF0A322902BAA24
:104180003173EBF031F9AC00AD01AE02AF03C00604
:10419000C007902BAA5110FBAA06E4F9F8D007D06B
:1041A00006D31220387E0050047F0180027F00C0B9
:1041B00006C00731F9D0E02FFFD0E03E902BAAF0E7
:1041C000A3EFF053ECFC902BAAE0FCA3E0FDEC5431
:1041D0000342EC75FF02EDF5AF75ED0275ED04A33A
:1041E000E0600543EC08800353ECF7902BADE060F2
:1041F0000443EC042253ECFB22902BAAE0FEA3E044
:10420000FBAA06E4F9F87F807E387D01FC02184E97
:10421000E0C313FEA3E0132290275112210CE4F512
:10422000FF75BB0575BB8575FF0175D5022023059C
:10423000D1B9124EE975FF0143D52030230241DD8B
:10424000E4F5FF538EF7438E077D04E4F5FF8DBC44
:10425000F5FF43B102E5B130E2FBE4F5FFAFDFEF7C
:10426000FEACDEECFBEBFFED25E0244FF582E43401
:104270002712598FE4F5FFF5FF53B1FD0DEDB40C96
:10428000CA9027517105780912205FA3EEF0A3EFC1
:10429000F0E4FDED25E02459F582E43427F583E0D0
:1042A000C313FAA3E013FBD18F51102BFFEE3AFE9C
:1042B000D18FEEF0A3EFF0ED240490120DF0EDC3DA
:1042C00094075019CFEDCF0DEFD190E0FEA3E0FFA2
:1042D000C3902756E09F902755E09E50B6E4F5FF27
:1042E000758EC8F5FF90120DE0F5BCE4F5FF75BBC7
:1042F0008075FF01F5D522E025E025E02401F58257
:10430000E43412F583E0FCA3E0FDA3E0FEA3E0FFAC
:104310002290273712210C75FF0243E1801250A131
:1043200012559F90274C122118002DC6C0E4F5FFAE
:10433000F5A490120EF0A3F09027477402F0D19CE0
:10434000FFF595EF14601714602424027033902752
:1043500037710590274812210C902743801E902723
:104360003B710590274812210C902744800E90271E
:104370003F710590274812210C902745E090275067
:10438000F01255CC902750E0700FF5FFF59675FFB1
:104390000175D70975F418805490120EE004F0905E
:1043A0002747E0124F1390274C7105902748F1DF03
:1043B000C312204E50099027487105A312210C907A
:1043C0002750E0FF125420902746E0FFA3E0FDA213
:1043D00026922412554DA37105902ADD12210C90CE
:1043E0002747E0FFB1EF90274751F7F1A3D1A46031
:1043F00002613E7402F0D19CF595E5F45407701A01
:1044000090274CB1C6FC780112205F902747E0FB53
:10441000D18112210CEB51F8F1A3D1A470D875FF12
:1044200003759580124F0B400343F420A22692257A
:1044300012547F90274CF1F1FEA3E02420FFEE34CC
:104440004EB1E8FCE4FB7A04F9F8B1D6FC7801122D
:10445000205FC2235118E4F5FFE5BD54F84404F58C
:10446000BD9012137401F07E127F01E4FDEF2DF573
:1044700082E43EF583E0FC901213E02CF00DEDB4E5
:1044800012EB22902898124F2390289E1221180098
:104490000000019028A27401F0F5FFE5D554C0702A
:1044A00005123D855002C322E4F5FF53967F75FF48
:1044B0000175D504D1B975FF0143D508E4F5FF5363
:1044C00094FBF5FF53847FF5FF7598FF90289CE5DA
:1044D000F4F075F49C75FF01A3E5E4F075E4257B29
:1044E000017A2879A2124F889028A2E06401600224
:1044F000A1A4F5FF90289B7414F090289E71057874
:104500000112207290289E12210CE5A730E1FB4396
:10451000A70290289E7105E5A730E005E47B0180A5
:1045200002E4FBFAF9F8EF4BFFEE4AFEED49FDEC31
:1045300048FC90289E12210C90289BE014F070BA41
:1045400090289E7105781012205F7B6D7A4E79C697
:104550007841121EF3EF2439FFEE3430B1E8FCE469
:10456000FBFA7901F8121F7EEE547FFEE4FDFC1287
:104570004B9990289E7105EB6FFFEA6EFEE8CDEF38
:10458000CDCCEECCECFF902898D1B0EF121D7A90F4
:104590002898D1B0EDF1EB90120FE030E606E4F58B
:1045A000FF75968075FF01E4F5D590289CE0F5F441
:1045B00075FF01A3E0F5E412546E9028A2E0B40167
:1045C00003D38001C322FF7E04FDFCE0F8A3E0F9E1
:1045D000A3E0FAA3E0FB121EF3E47B7DFAF9F812E4
:1045E0001F7EEF2401FFE43EFEE43DFDE43C22900B
:1045F0002ADCEFF0E4A3B1C6FC780112205F902A18
:10460000DCE0FBD18112210C901210E0FF6480608D
:104610006EEFC3947F5037EBD181C083C0827105A8
:10462000EEC0E0EFC0E0901210E075F004A4AEF030
:10463000FBCAEECAEA3395E0F9F8D0E0FFD0E0FE1D
:10464000C3EF9BFFEE9AFEED99FDEC988029902A2E
:10465000DCD180C083C082F1DF901210E0F40475D9
:10466000F004A4FFAEF0EE3395E0FDFCEB2FFFEA83
:104670003EFEE93DFDE83CFCD082D08312210C22B5
:10468000E025E025E02401F582E43412F58322EDF3
:1046900025E02457F582E43427F5832275FF039043
:1046A0002747E022902747E0FF14F0EF22902B47A6
:1046B000E0FBA3E0FAA3E0F9227F3FFE123FBB122A
:1046C0003FB475FF03E59120E7FB22E4902B3EF019
:1046D000A304F0E4902B41F0E5FA30E1FB75FF0113
:1046E000E5D530E7037F0022E4F5FF75E50875FFA7
:1046F0000153D8EFE5D530E61A75FF01902B40E560
:10470000DAF0E4F5DA75FF01E5D630E3FB902B41F2
:104710007401F075FF03759B0475FC4175FF03E59B
:104720009B30E7FBE4FB75FF038B95EB51F8F1A39E
:104730000BEBB403F175FF03759580E4F5FF758EFF
:10474000C8124EE975FF0153D5FB123FD87F1412F2
:104750003FB0D1C275FF0143D504902B41E07008F2
:10476000123FD8123FAED1C27B017A2B793F125350
:10477000C7902B3FE0902B3E7006E04404FF800280
:10478000E0FF902B3EEFF090120EE0B4010675FFB3
:104790000143D81075FF01902B40E0F5DA902B3ED5
:1047A000E0FF22902B3A12210C75FF01902B3AA3C7
:1047B000E0FDA3A3E4FFFEE4FC781012205F8FE18C
:1047C000902B3AA3A3E0FEA3E4FFE4FDFC780812DB
:1047D000205F8FE2902B3AA3A3A3E0FF8FE322E0B8
:1047E000F8A3E0F9A3E0FAA3E0FB22900001021D88
:1047F0008CE0FCA3E0FDA3E022AE073168EE04FEEE
:10480000EF8EF084AFF02230200C90248EE0700602
:10481000FF121A07C220111B0219F8301324114588
:10482000FF900449E0FEEFC39E400AEF9ED394023E
:104830004010C21322900449E0F42FD394014002A7
:10484000C21322C2AD9026CDE0A3E0229002DBE0AD
:10485000FCA3E04C700A9002DBEEF0A3EFF0D32251
:10486000C3229002DBE0FEA3E0FF4E6009CAEECA5D
:10487000C9EFC912229C22EFB40109D2AD75FF0124
:1048800043AE4022C2AD75FF0153AEBF22E5C8540E
:1048900002FF75C80222E5C85404FF22E5C854018E
:1048A000FF2275FF02D2ADD2BD75FF02758E717504
:1048B000640975FF02E58E546F4480F58E22C0E0D6
:1048C000C0F0C083C082C0D075D008C0FF75FF02A1
:1048D000E58E30E42875FF02E58E54EF4410F58E26
:1048E000900000E004F0E56430E0020511E564703A
:1048F0000A7564099026CD311B8002156475FF028C
:10490000E58530E40875FF024385100565D0FFD0CA
:10491000D0D082D083D0F0D0E032E475F001021E16
:1049200015123D85500431324003301303D380010A
:10493000C322E5F754E024FF22AF36EFC36001D372
:1049400022EFC3940E5005900437EFF022E539545E
:104950000FFF22E539C394F0501F5339F0317CFE2C
:10496000740FC39F4005EE940E400543390D80033C
:10497000EF4239E539540FFF227F0022E539C45454
:104980000FFEEF9018E8932E22317CFFC3940E4067
:10499000027F0DEF9018CA93FF22EF30E3077433C4
:1049A0002DF8E6FF22743D2DF8E6FD201404EE30CC
:1049B000E00BE539C394F0502031DC8018E53C6011
:1049C00006FDE4F53C8012E539C394F0500BE5395F
:1049D000540FFF60043189AD07AF0522900437E022
:1049E000FDFFC3740E5103EFC4F8540FC868FFEE07
:1049F000C454F048FEE53954F0C371907F00500272
:104A0000AF05229FFFE49400FE22902B42EDF09030
:104A10001211E0FEF46006A3E0FDB4FF0C902B44FD
:104A20007418F0A37413F08008902B44EEF0A3EDFB
:104A3000F0121CBB64016002616A902B42E0FE64CC
:104A4000086004EEB40408902B437428F0800690AC
:104A50002B43743AF0EF1242F812202AE4716BEF04
:104A600024D8FFEE343FFEED3493FDEC3416FC7B8E
:104A7000007A807903780012184E7199902B45E0E6
:104A8000FF902B44E0C35103E4FCFD121EF3ECC085
:104A9000E0EDC0E0EEC0E0EFC0E0902B45E0FFE4C9
:104AA000FCFDFE716BD0E0FBD0E0FAD0E0F9D0E085
:104AB000F8EB2FFBEA3EFAE93DF9E83CF8902B438E
:104AC000E0FFE4FCFDFE121EF3EF2454FFEE340B76
:104AD0001245E8FCE47BA87A16F9F812184ECBEFE1
:104AE000CB902B42E014605D14601B24FE600C240C
:104AF000FC7077E4F5FF75CE318006E4F5FF75CEE6
:104B000021F5FF8BCF22E4FAE4F5FFEA2440F5CE4D
:104B1000E4F5FFEAFFC37407510374F72FF58274BD
:104B2000183EF583E47173C39DF5CFE4F5FFEA24E5
:104B300048F5CEE4F5FFEA9018F771732DF5CF0A2A
:104B4000EAB408C422E4F5FF75CE01F5FF8BCFF57A
:104B5000FF75CE0EF5FFEB25E0F5CFE4F5FF75CE42
:104B60000FF5FFEB75F003A4F5CF227B64FAF9F89B
:104B7000021EF39325E0FDE433FCEB75F010A4FF77
:104B8000AEF0121DC0CDEFCDEBFFE4C313EF132247
:104B90009FEE6480F874809822C8ECC8C9EDC9CA39
:104BA000EECACBEFCB22E53954F0C4540F2FFFC32C
:104BB000941040027F0FEF9018D893FF227E10EEE2
:104BC00060091EEE9018D893B507F4EEC3940E401A
:104BD000027E0DEE9018CA93FF22900461EDF0A3BF
:104BE000EFF07F01121B2E900461E0FFA3E0FBE4D5
:104BF0009029E6F07D0212369C50ECD322B1B6E546
:104C0000D120E0FBE4F5FF75D901F1505005E00437
:104C1000FF80027F009120D2281235F9E4F530227E
:104C2000912F43FA04E4F5FF53D1FD43D1012275DE
:104C3000FF01E5D530E602C322E4F5FF439A80EF99
:104C4000F113E4F5FF539A7FD322C0E0C0F0C08394
:104C5000C082C0D075D008C0FFB1C78F3AE53A64B2
:104C6000027032E53624F8602224076002A17790B2
:104C7000044BB1AC700B902A657406F0753600A138
:104C80007743FA0475FF009128A177C2EB753600CF
:104C9000433704A177E53A64016002A177F104404B
:104CA00002A177E530702B853282853183E0900454
:104CB0006DF0E0FF64556004EFB4540B753005757A
:104CC000FF0075D901A17775300275FF0075D9080D
:104CD000A177E5306402703AB1A0E090046DF0F184
:104CE00064F13C900435EFF090046DE0FFD394093B
:104CF0004006EFD394AA4004B184805590046DE03F
:104D0000F538B18D75FF0090046DE0F5D97530036D
:104D10008065E53064057029853282853183A3E0A2
:104D200090046DF090121BE0FF90046DE06F700C2A
:104D300090043404F0B18DE0FF1219EE753000805C
:104D400010E53064037030B18475FF00E5D330E0C6
:104D50000471FD8022C2281235F975FF00B1BEE54D
:104D6000D120E0FBC2EB4337027530001538B1A00B
:104D7000E538F09002D6F0D0FFD0D0D082D083D0EA
:104D8000F0D0E032301305C213123EC322B1959029
:104D9000121CEFF022E5F45418131313541FFF22D2
:104DA000E5322407F582E43531F5832274FFF5F00E
:104DB000121E1545F022C2281235F9E4F5FFE5D19F
:104DC00054FE4402F5D1227FFA123FB0E5FC30E6F2
:104DD000051237BE40F6E5FC30E6037F032275FF7F
:104DE00001E5D530E6037F0222E5D57F0030E702FA
:104DF0007F0122E0FF7B01902B46EFF0A3F12375AA
:104E0000FF01B1C7EF64016002C322E5F430E6029E
:104E1000C3227FE87E03123FBB123FB4D1CA4001D8
:104E200022C2281235F9902B46E0FF912F53F4DF70
:104E3000D2281235F97F787E00D17B75FF0153E4CB
:104E4000BFE5E430E7FB75FF01E4F5EA75EAFF7FB3
:104E50008AD1E130E6061246ADE4800875FF011202
:104E600046ADE5D9121D7A75FF0143E440F10B40D0
:104E70000343F420D1CA400122D322CDEFCDCCEEA2
:104E8000CCD1BEAB94EF4BF11BCBEFCBFAE591301D
:104E9000E71DD1C1A994E9F582EF4582FFEB2DF51D
:104EA00082EA3CF583C3EF9582E5F0958340DEE529
:104EB0009120E709CEECCECFEDCF1246BC2275FF94
:104EC00003AF93EF75F010A4FF22E5F730E510E58E
:104ED000F754C070051237BE40F0123FD8C322D33A
:104EE00022FED17B90120FE022E4F5FF75C2E17F34
:104EF0001ED1E130E707E4F5FF75C2A122E4F5FF1A
:104F000075C28122E5F754C024FF2290120EE0D32F
:104F100094012233333354F8F5F42224FBFFE5F0F7
:104F200034FF22EBF0A3EAF0A3E9F022E53720E515
:104F300007B1B6E5D120E0FBE4F53022EF24FE60B6
:104F40000C24FE600580007F01227F02227F032265
:104F500090121CE02401FFE433FEC3EF9403EE64DF
:104F600080948022E5F75406FFBF06037F0822E500
:104F7000F75406FFBF04037F0422E5F75406FFBF82
:104F800002037F02227F0122902BAEF1237F017C5E
:104F9000127D01E4FEED2EF582E43CF583E02FFF67
:104FA0000EEEB412F0901213E06F600A902BAE1266
:104FB00046B0E4121D7A22E4F5360235D0C2AFEFD6
:104FC0004237D2AF22900463EFF0A3EBF0753601C5
:104FD000E4FBFDFF1253177B017A04793B125375F2
:104FE000E4FD7F0212539D1259A64404F5D29004A9
:104FF0003B7455F0900463E090043CF090043674E8
:1050000003F0900464E0FFC374799F90044CF0E4D3
:10501000940090044BF0225337FEE53730E5057FCE
:1050200001124C2F1246CBEF70FA7F02121B2EE4B6
:10503000900468F0900468E0FFC394035039123E76
:1050400033900467EFF0BF0203A38013900467E07E
:10505000B43319A3E0FF123E33BF0210900468E09E
:1050600090121CF09004677401F0800BE4900467C8
:10507000F0A3E004F080BD900467E0700E123D855F
:105080005005C2281235F9119A800890121CE0FFD1
:105090001219EE900467E024FF2211A17F08021B81
:1050A0002EE5FA30E1FB75FC8075FF0153D5EFE486
:1050B000F5FC75FC40123FD8E5FC20E6FB2290048D
:1050C0004BE0A3E0FF22900469EFF0A3EBF0900423
:1050D00069E03157F583E0FEB402037F0022EE70F1
:1050E0001E900469E0FF3157F5837401F090043895
:1050F000E0FCA3E0FDEF315FECF0A3EDF0802AEDE2
:10510000241BFFE433FEE4FCFD7B0CFAF9F81218D3
:105110004EEF2405FF900469E0315FE0FCA3E0C39B
:105120009FEC940050037F00229026CFE0B4FF153F
:1051300090046AE0540FFFBF0103E4800490044A26
:10514000E09026CFF09026CFE060037F02229026E9
:10515000CF74FFF07F01222470F582E434262225EB
:10516000E024C7F582E43426F58322E490043D313F
:1051700081E4FFFEFDFC900441318890044502214A
:105180000CFFFEFDFC02210C12210CE4FFFEFDFCD5
:1051900022EF319A12209F02208525E025E0243D50
:1051A000F582E43404F58322E4902A65F0FBFAF9F1
:1051B000902A61122175E4900434F0902A60F02264
:1051C0001219B2902A64E014F06005A374058005FA
:1051D000902A657407F0023C3A902A65E0FF640665
:1051E0006004EFB40103123C3A900434E06013E42D
:1051F000F0902A60E0700B90121EE05430600312B1
:105200001A0222E4902A60F0021A897F017E00903F
:1052100017FCE4935EFE7401935F4E24FFB322906B
:105220000001740193B40007E493B41802C322D3BD
:1052300022EF7011ED600775FF0143AE012275FF8B
:105240000153AEFE22EFB40110ED600775FF01437C
:10525000AE022275FF0153AEFD2275FF02E5E63076
:10526000E2037F0322E5E630E3037F0022E5E63038
:10527000E1037F0422E5E67F0530E0027F0122EFB3
:10528000600775FF0253E6BF2275FF0243E6402226
:10529000EF14600F146014240270188B8075FF01E6
:1052A0008DFD228B9075FF018DC9228BA075FF01AA
:1052B0008DCA22AF038FB075FF01AF058FCB22904F
:1052C00029DD122175EF1460111460182402701E7C
:1052D00051F9E58051FFE5FD801C51F9E59051FF42
:1052E000E5C9801251F9E5A051FFE5CA800851F9DE
:1052F000E5B051FFE5CB021D7A9029E0022155125D
:105300001D7A75FF019029DD022155E4F5FFAF916B
:1053100022E4F5FFAF9222E4F5FF75D102E5D1203A
:10532000E0FBE4F5FFF5D1EF6008E4F5FF43D28040
:105330008006E4F5FF53D27FEB6006E4F5FF43D12E
:1053400004ED6006E4F5FF43D10822E4F5FF75D1D2
:1053500002E5D120E0FBE4F5D1F5FFEF716CEE54EE
:105360000F42D6E4F5FFCFEDCF8FD422F5D7E4F589
:10537000FF53D6F022E4F5FFE9716CEA540F42D6F0
:1053800022E4F5FFEFF5D8E4F5FF53D60FEE540F06
:10539000C4F854F0C8E4C4540F4842D622E4F5FFE0
:1053A0008FD4F5FFCFEDCF8FD522E4F5FF8FD42238
:1053B000E4F5FFE5D1540133333354F8FFE4F5FF4E
:1053C000E5D354074FFF22C22275FF03759B1F755B
:1053D000FF0390120FE0FF20E71BE59A540FC394E0
:1053E000024012EF4480F0E4F5FF75C2A143FC04D3
:1053F00075FF03D222E5FC30E609E59A540FC39409
:105400000540CCE5FC30E611E4121D7A75FC80F510
:10541000FC75FC40E5FC20E6FB30220312446122CF
:10542000EF30E00E43F401E4F5FF43A404F5FF750B
:105430009624EF30E10E43F401E4F5FF43A408F5B0
:10544000FF759624EF30E20943F402E4F5FF759608
:105450001EEF30E30943F404E4F5FF75961075FF81
:1054600001EF5403600475D7122275D72D22E4F59D
:10547000FF7584E6F5FF439404F5FF75981422E464
:10548000F5FF75933F75FF03759A40916EE4F5FF44
:10549000759C93F5FF75A1A3F5FF758531F5FF7533
:1054A0008628E5FA54304480F5FA75FF0175E74A1D
:1054B00075FF0275DF4975FF0143D30475FF015382
:1054C000D367E4F5FF53E6BF75FF0175D825F5FFF7
:1054D00075B503F5FF75B215F5FF75BA02F5FF75E1
:1054E000AFB3F5FF75CD0AF5FF75CB08F5FF75CAAB
:1054F00012F5FF75BF0EF5FF75CC96F5FFF5BDF5FE
:10550000FF75C281F5FF75AEE1F5FF75DA55F5FF60
:1055100075F580F5FF75E903F5FF75E933F5FF755E
:10552000972A75FF01759B42759CA4759D29759EF0
:1055300048759F2475A11275A312759AF820250C41
:10554000F5FF43968090120FE04440F022CCEFCC60
:10555000CFEDCF74017E00C8EFC8088005C333CEFD
:1055600033CED8F9FFCDECCDEF5D601B302418753C
:10557000FF0175DCAD75FF0175DDCDE4F5FF759AB2
:1055800074F5FF7594842275FF0175DC5375FF0176
:1055900075DD33E4F5FF759A14F5FF7594042275F3
:1055A000FF01438E1075FF0153DB7F75FF0175D539
:1055B000027F14123FB01246C275FF01438E107570
:1055C000FF0143DB8075FF01E4F5D52275FF01750E
:1055D000E46575FF0175D6472275FF01E5D530E614
:1055E00002C32253FACFEFB4080543FA308012EF1A
:1055F000B4040543FA208009EFB4020543FA108091
:1056000000D32275FF018FDA2275FF01E4F5EA75F8
:10561000EAFFAFD922E4FFE5F754C0600280EA75E3
:10562000FF01E5D530E30F123FA750F3D109EF603A
:10563000EE123FA750E92275FF01E5D520E602C32F
:1056400022E5FA540360FA75FF018FC3D322CEEF2F
:10565000CE75FF01E5D520E602C32243FA04E4FD3E
:10566000EDC39E50077F55D1370D80F4E5FA5430D5
:1056700070047F0F80027FF0D137D322902C48EE48
:10568000F0A3EFF0902C48E0FF123980902C48A353
:10569000E0FF023980EF600A75F28075F24043F155
:1056A0004022E5F130E70653F17F43F180E5F13028
:1056B000E308E5F230E7FB75F2C022E5F130E706DA
:1056C00053F17F43F18022EF600443F1802275FFA4
:1056D00001E4F58E53F17F22EFB40807F10444038F
:1056E000F58422EFB40407F1044402F58422EFB4F8
:1056F0000207F1044401F58422EFB4010675FF01AD
:105700005384FC2275FF01E58454FC22E5F130E46A
:105710000F75FF0175FF015385F075FF018F86221C
:1057200075FF01EF540FFDE58554F04DF58575FFCC
:1057300001EEC4F854F0C8EFC4540F48F58622EFC8
:105740006003D2EA22C2EA2275F24022E5F2C330B7
:10575000E601D322E4F51EF51FE5F230E72675F2E7
:1057600080E5F1AFF330E407751E008F1F8010EF66
:1057700075F010A4F51F85F01EE5F2540F421FAE20
:105780001EAF1F227EFF7FFF22EF600775FF0143E0
:1057900084042275FF015384FB2275FF0153853F6A
:1057A000EF428522EFB4010443F1102253F1EF22BE
:1057B000EFB4010443F1042253F1FB22EF600443F0
:1057C000F1012253F1FE22EFB4020343F108EFB4DA
:1057D000010353F1F7EFB4030543F101804DEDB43C
:1057E000040875FF014385208022EDB4010E75FF8A
:1057F000015385DF75FF015384F78010EDB4020C6F
:1058000075FF015385DF75FF01438408EBB4100871
:1058100075FF015385EF800AEBB4200675FF014345
:10582000851075FF01902BA9E0F58E43F18022EFE2
:10583000600775FF0243E6102275FF0253E6EF2270
:1058400075ED042275ED0222E5ED30E2FB75ED0405
:10585000AFEF22AFEF228FEF22EF600443EC042280
:1058600053ECFB22EF600443EC082253ECF722E5F3
:10587000ED5402FF22E5ED5404FF22E5ED5401FF53
:1058800022902891122155902896E0FFA3E09029BC
:1058900009CFF0A3EFF090288D12209F122C7D905D
:1058A0002896E0FEA3E0FFC3902895E09FF09028A3
:1058B00094E09EF090288D1220BBE4FCFD121ED8CF
:1058C00090288D12210C902891022155FF1221550C
:1058D000E92405F9E43AFA227B017A12791B902A2D
:1058E000691221757A0279D722122155E92406F925
:1058F000E43A22122155EF021D7AAA06A9070222D4
:105900009CEFF0A3022175E0FCA3E0FD4C221221E4
:1059100055900004021CF81221557401021D7A9062
:1059200002DEE0FEA3E0FF1219A8D3EF94C8EE94C4
:105930000022122155E9240422E0FDA3E09029EF82
:10594000CDF0A3EDF022E0FFA3E0FEC39F22F0A381
:10595000F0A3F0A3F0A322121D8C90000274012288
:105960001221557405021D7A74FF121D25021CBBFD
:10597000E0FCA3E0FDD39FEC22E0900004021D8C2C
:1059800024E2F9E43AFAEF22758300EF021D8CF568
:1059900083EEF0A3EFF0228B828A830222A07C00A8
:0E59A000FFEC35F0FE22E4F5FFE5D254802244
:107FB000FFFFFFFFFFFFFFFF7FC600000000000084
:067FC000000003030000B5
:10800000EF547024F0602624F0603C24F060522489
:10801000307067302A0B117C8002C333D8FC428059
:1080200022117C8002C333D8FCF4528022302A0B08
:10803000117C8002C333D8FC429022117C8002C3A1
:1080400033D8FCF4529022302A0B117C8002C333C7
:10805000D8FC42A022117C8002C333D8FCF452A089
:1080600022302A0B117C8002C333D8FC42B022118B
:108070007C8002C333D8FCF452B022FEEF5407FFD9
:108080007401A8070822F9E43AAD01902BC7F0A3C8
:10809000EDF0911E902B5AEFF0C394024002419CE8
:1080A000902B5AE0241991D3E0FF902B5DF090249F
:1080B000F6E0FEEFB50605E4F5518006902B5DE095
:1080C000F551E55175F011A42407F9740035F090CD
:1080D0002B5D12C18AE5511237F38F57E5575403D0
:1080E000FF6033902B5AE0FE241F51A0E0548FF024
:1080F000741F2E51A0E04420F0902B5AE0FE24176C
:1081000091DBE0549FF074172E91DBE0FEEFC43357
:1081100054E0FFEE4FF0E4902B5CF0E4902B5BF02A
:10812000E55151B6FA902B5C51D8902B5B12C01CD4
:10813000D19F8F57902B5AE0FF241F51A0E0540F7E
:10814000FE902B5BE0FDC39E500AEF911012D3808E
:108150007C00800F902B5BE07005FC7DFE80047C32
:10816000007D00AF05EF65576002801EEF64FE7072
:1081700002419C902B5BE0FD6009EF7006EE6D7094
:1081800002419C902B5BF1ED4096902B5BE06404E8
:108190007002419C902B5CF1ED4080E55151B6AFEF
:1081A00001F54F8F50902B5AE0241F51A0E0540F3F
:1081B000F557E4902B5BF0902B5BE0FFC3940450E9
:1081C00019AD51D1FBA4FDACF0E55151B6D199EFF9
:1081D0006008902B5BE004F080DD902B5BE0C394A3
:1081E0000440037403F0902B5BE0FFAD5191F490D9
:1081F0002B5BEFF0902B5AE0241F51A0E0540FF5B9
:1082000057E4902B5CF0E5577011E55151B6FA90A8
:108210002B5B51D8FEAF017DFE8025902B5CE0C327
:1082200095575027E55151B6FA902B5B51D8A312C0
:10823000C01CFEAF01E0FD902B5AE0911012D380DC
:10824000123817902B5CE004F080D0902B5CE0C3D8
:108250009404500DE55151B6FA902B5B51D8123869
:1082600009F1CB1237FC8F57902B5AE0241F51A0F5
:10827000E054F0C394025011902B5BE0117F800218
:10828000C333D8FCF45257800E902B5BE0117F80F3
:1082900002C333D8FC4257F1CB12C19222741F2D76
:1082A000F582E43412F5832291F4EF75F004A4FD15
:1082B000ACF0902016E075F011A42408F974003594
:1082C000F022AE4FAF507C007D11121DAE74192FFD
:1082D000F974003EFA902843E075F004A429F9EA05
:1082E00035F022902B4EEEF0A3EFF02016199020DF
:1082F00002E064017014902B4E9101540FFFBF08EF
:1083000003D38001C340037FFF22F1E57B012404F6
:108310009109128FBB60028009F1E57B012409916C
:1083200009FFAB0712C654AD07EDF47031F1FD50F3
:108330001FE004F0E4FD74192D91D3E060050DED0C
:10834000B402F3EDB402027D01ED24FF9215800E1C
:10835000201709B215A215E433FD80027D017419BE
:108360002D91D3EBF0902B4E9101540F640870695E
:10837000902B4EA3E0240B9109C4540FFC519DECAB
:10838000F0902B4EE0FAA3E0FB240CFEE43AA3F0BD
:10839000A3CEF0A9037B01E9240A128AC220E01AC5
:1083A000AF041CEF604491E3FFED9110E5822CF5E2
:1083B00082E43583F583EFF080E6E4FFAE041CEE43
:1083C000602891E3FEAB070FED9110E5822BF5825B
:1083D000E43583F583EEF080E3519DE4F074172DCE
:1083E00091DBE4F0ED911074FEF0519DC083C082EA
:1083F000E0FFF1F5FEEF4ED082D083F0D216AF054C
:1084000022E0FEA3E07B012405F9E43EFA021CBB56
:1084100025E025E02424F582E43412F58322AD071B
:108420007FFF30160281CFAF0512C654EFF47024DF
:10843000F1FD5017E004F0E4FF91D0E060050FEF8C
:10844000B402F6EFB4020D7F018009201704E4FFA7
:1084500080027F0191D0EDF074172F91DBE4F09052
:108460002BC7E0FCA3E0F5828C83E0540FFE741F61
:108470002F51A0EEF0741F2F51A0C083C082E0FDE9
:10848000F1F5FCED4CD082D083F0EE603AE4FDAC27
:10849000061EEC6038902BC7E475F001302B1112EA
:1084A0001E1591EDFCAB050DEF9110E5822B800CB4
:1084B000121E1591EDFCEF9110E5822EF582E43548
:1084C00083F583ECF080C8EF911074FEF0D2162291
:1084D00074192FF582E43412F58322F582E4341204
:1084E000F58322902B50E475F001121E2B85F0824B
:1084F000F583E022E4FE7C03EEC39404502A741852
:108500002D12BE5BE05CFBEE25E0FAEBA8020880D2
:1085100002C313D8FCB5070790210AEEF0FF220E24
:10852000EC25E025E0FC80D07F0022902C50EFF07D
:10853000902C50E0FFC394045050902016E0FD783A
:1085400080F651A8D199EF603912D377E0FD51A898
:10855000FAE92DF9EA3C123824902C5012D33E60EF
:1085600029E4FF74822FF8E6700E902C50E0601A18
:10857000EF701774FFF080127881060FEFB404E3F8
:108580008008902C507404F080A6902C50E0C39486
:1085900004400574FFF08044902016E0F1CD1237BE
:1085A000FCA90712D377E0F1D78002C313D8FC549B
:1085B00003600D24FE600F14701278867618801008
:1085C00078867620800A7886761080047886760809
:1085D0009020161237F2EF600312C014902C50E076
:1085E000FF22902C5112B0A712C003504C7E007F86
:1085F000071238037880EFF66037902C51E0FFE4E3
:10860000FDD1FB51B9123824902C5112D33E602970
:10861000E4FF74822FF8E6700E902C51E0601AEFA0
:10862000701774FFF080127881060FEFB404E380B6
:1086300008902C5174FFF080AF12C003400574FF06
:10864000F080507B027A0F79807E0F7F8012380392
:10865000A907902C51E0FFE4F1D78002C313D8FCA6
:108660007E0060047F0180027F00EF7803C333CE79
:1086700033CED8F9FF7886F6BF10117B027A0F79D6
:10868000817E0F7F81123803EF12C0147886E67066
:10869000027620902C51E0FF22FAE92DF9EA3CFE07
:1086A000AF01023803902C5212B0A790201674FF2D
:1086B000F0902108F0902C52E0B5070AE4902016C3
:1086C000F0FFB1E28023902C52E0FDE4FFD1FBA447
:1086D000FDACF0902C5251B5D199EF6011902C5215
:1086E000E0902016F0E4FFB12B902108EFF09020ED
:1086F00016E0C394FF50028001C32291F4EF75F09D
:108700000422EF7002C322EF12D3C5F54FFE12B060
:1087100058D19FEF6019E4F551AE4F12B058FAE509
:108720005151D9D19FBFFE02D32212D3BD40EAC31B
:1087300022EF547024F0601A24F0602424F0602E9C
:108740002430703775FF01117C8002C333D8FC429E
:10875000FD2275FF01117C8002C333D8FC42C9227F
:1087600075FF01117C8002C333D8FC42CA2275FF19
:1087700001117C8002C333D8FC42CB22EF54702419
:10878000F0601B24F0602624F060312430703B75CB
:10879000FF01117C8002C333D8FCF452FD2275FF27
:1087A00001117C8002C333D8FCF452C92275FF0149
:1087B000117C8002C333D8FCF452CA2275FF011128
:1087C0007C8002C333D8FCF452CB22E55175F00211
:1087D000A42480F9740F22FD91F4EF25E0FFAE018F
:1087E000EEA8070822902B4EE0FEA3E022E004F062
:1087F000E0C3940422902002E0C454F022901216A8
:10880000E0C3940222AD07ED547024F0602324F0FD
:10881000603624F060492430705A11768005C333E5
:10882000CE33CED8F9FFAC80ECFBEF5BC36001D355
:108830002211768005C333CE33CED8F9FFAC90EC4D
:10884000FBEF5BC36001D32211768005C333CE33C7
:10885000CED8F9FFACA0ECFBEF5BC36001D32211D3
:10886000768005C333CE33CED8F9FFADB0EF5DC30C
:108870006001D322C322ED5407FF74017E00A807D4
:108880000822902C26EFF031AEF5828E83A3A3E070
:1088900033333354F8902C27F0200B022138902CDE
:1088A00027E0FF902C26E0FEC39F504DEE131313DC
:1088B000541FFF12C4B62F12D3837C00EE117780B1
:1088C00005C333CE33CED8F9FFEE5CFEEF5D4E60CC
:1088D00020902C26E09024ECF01249DCAD07902487
:1088E000ECE004FF7A1A7B2512CBFEEF704C02C439
:1088F00054902C26E004F080A5C214C20B12BFE7EE
:1089000012CC6C7407F0E4A3F090248E7403F09002
:1089100024ED31B67B017A24798F12BDAE9027D336
:108920007403F090249412D3CD902493E0FB12AF03
:10893000B5EF70067F028003C2142212BF9AFF6453
:10894000046065EFB40302805F90248EE0B4010CF4
:10895000C20A90121BE0700490248EF090248EE0E6
:10896000701DFF12B6C4C20AE49024C5F0200C0D9D
:1089700090121EE0543070057F0112BF23C20C908C
:1089800024E7E0FAA3E0FB4A601490248E31B6128B
:10899000599790248EE070069024E7F0A3F090247D
:1089A0008EE0B401087403F07F0412BF54229024B7
:1089B000F0E0FEA3E022E0FF90121BE0FD22902BEE
:1089C0004A122175902003E0600241B8D128240AA0
:1089D00051C24401121D7A4402D125240B51C2FF19
:1089E000540FFE902B4DF0EF54F0121D7A54F0FF0F
:1089F000EE14540F4FD125240651C2FE30E717D193
:108A000028240B51C212C32BFCD1282427F9E43AA5
:108A100012C338FF80027F00D128240B51C2C454F6
:108A20000FFD902B4A51BCFCC39DC39FFFC3EC9F1D
:108A300024F4902B4DF0D394A1400374A1F0902B1B
:108A40004DE0FFEE30E70BD128240A51C25407FE57
:108A500080027E00EEFD7C00D128F1C9E9240112DC
:108A6000A4BAF179F1D0F17FD128240651C2547F04
:108A7000D125240B51C212B623124A03D12812A4C5
:108A8000AAE4121D7AC20490200231B6D12824042F
:108A900051C2FBC003F1D012BDAE902B4DE0902728
:108AA000D312C8E1D00312C8D89002D1E070099067
:108AB0002003E0600312D164229028E4122155E9DA
:108AC0002407F9E43AFA021CBB902B5E12217512BE
:108AD000217EE9240A51C2541FF515D11C51BFFF54
:108AE000E5106401601C7413D39F5016E515B402A1
:108AF00006741AD39F500BE515B40108741ED39F5A
:108B00004002C322D11CE9240B51C230E216D11C11
:108B1000E9240951C2F1BB600BD11CE9240451C204
:108B2000FF12992FE5156402600261CF902B5E5110
:108B3000BC30E70261CDD11CE9240951C2F1BB7000
:108B40002820100261CDC210D11CE9240451C2FDBD
:108B50007F0312CF83D11CE9240451C2FFD22BD151
:108B60001CE924141280868064D11CE9240D51C2B2
:108B7000FF540FFE6057D11CE9240EF9E43AFA1EA7
:108B80007C00E92E12D32AFD90121BE06D703ED1BD
:108B90001C51BF641A7036D11CF1DFEF54F0241061
:108BA0002ED11912A783E4D119F1797B017A2379A7
:108BB0005D7F19F17FC204D11CE9240451C2FFD1A9
:108BC0001CE9240951C2FD12B0F412A64EC322E4DE
:108BD000FFD11CE9240E12B63B121CBBFE90121BE7
:108BE000E0B50602C3220FEFB404E6D11CE9240469
:108BF00051C2FFD11CE9240851C2FD129A3550021E
:108C0000C322D11CE9240951C2F1BB7002A14390D7
:108C1000121EE0FF54306002A143EF20E002A143A6
:108C2000E51564016008902B5E51BC30E71B200FF6
:108C300002A143E51564016002A143D11CF1C2FE0B
:108C4000AF0112CB134002A14312C4C78F12BF025F
:108C500002C322D11C51BFFF74AAC39F5002C3227A
:108C6000E515B40119D11CF1C2FA7B01C002C001A3
:108C70007A0279D7F179D001D0027F04F17F902375
:108C80005A12D3DBD11C51BFF16A240BF9E43AFA32
:108C9000C003C002C001D11CF179D001D002D003C1
:108CA000F17FD11CE9240451C2FF1299A9D11CE91A
:108CB000240851C2FE129A75A6061299A0760708DA
:108CC00076D0D11CE9240D51C254F0902B61F06094
:108CD00072E0FF7440C39F406AE024F0F0F16B241F
:108CE0001851C2540FFF7404D39F405790121BE0D9
:108CF000FEF16B241912B63BEE121D7A902B61E047
:108D00002F04F16A2418F1A9D11CE9240451C2FFEF
:108D100090235A12A78EF1A9D11CE9240951C2F15E
:108D20006A2403F1A990235A12591790235A12A5C5
:108D3000CF7440D11951BFF19FF16BF1C9E4F5F047
:108D4000121EB9D11CE9240951C2F1BB6006EFF42F
:108D50006002C115902B5E51BC30E702C115E515CC
:108D60006002C115D11CF1C2FAC003C002C001905B
:108D70002B5E12AD47F9E43AFA12219ED11C51BF85
:108D800024EDFF902B5EF1A3902B5E51BC4401D1EA
:108D900019E9240551C230E775D11CE9240451C2F8
:108DA000FFC22BD11CE9240D128086D11CF1797BE6
:108DB000017A23795D7F12F17F902362E0547FF086
:108DC000D11CE9240451C290236FF0D11CE924087E
:108DD00051C2902370F0D11CF1DFF1797B017A232D
:108DE00079717F05F1F0902361F0902364741AF09B
:108DF000D11CE9240451C2FD902366F0A37422F033
:108E0000A37407F0C20412B0F412A64E8009E5154F
:108E1000C37001D322C322D322121D7A902B5E127B
:108E2000215502217E121D7A902B4A122155E922EA
:108E3000123FE5E9240151C2D39401403D12C845D7
:108E4000902A8FEFF0E004F07E1A7F84F16224B75D
:108E500051C2540F64087018F16224BC51C220E062
:108E60000FF16224BD51C2F1E7B504047D07803FD4
:108E7000F16224B151C2F1D78035E4902A8FF07E9F
:108E80001A7F84F16224B751C2540F64087018F13C
:108E90006224BC51C220E00FF16224BD51C2F1E74F
:108EA000B504047D078008F16224B151C2F1D77C7A
:108EB00000902C22EEF0A3EFF0902A8A7401F0AE1D
:108EC00004AF0512C805AC06AD07902C22E0FEA346
:108ED000E0FFAB07AA0612C3F8ED4C70050DBD000C
:108EE000010CD3ED94FFEC9403500AEDF586EC44AD
:108EF00030F5858052D3ED94FCEC940F5017EDAE15
:108F0000047802CEC313CE13D8F9AC06F586EC4430
:108F100034F5858032D3ED94F0EC943F5016ECC4D8
:108F2000F854F0C868FCEDC4540F48F586EC44389A
:108F3000F5858013EDAE047806CEC313CE13D8F9B1
:108F4000F586EE443CF585902C1C12D34AD21EE4E3
:108F5000F56575FF0243854075FF02438580D21D8C
:108F600022FF902A8B122155E922FF90235A1221C9
:108F700055E92290283B1221559029F50221759040
:108F800029F2122175AE071FEE60139029F5122FFA
:108F9000DEFE9029F212D38DEE121D7A80E722FFB9
:108FA00090235A122155E92406F9E43AFAEF021DFA
:108FB0007A7E0029F9EE3AFA121CBBFF90121BE0F0
:108FC0006F22E92412F9E43A222409F9E43AFA2258
:108FD0007B017A2179112275F00A842406FD22E9A9
:108FE000240DF9E43AFA22FDC4540FFCED540F228B
:108FF000F17F90121BE0FF22EF14600D14600D143E
:10900000600D2403700CAF8022AF9022AFA022AF7E
:10901000B0227F002212C3F8C21DE4F565C21E22F1
:10902000E4902A8AF080EE128F622402128AC23003
:10903000E20A902108E0F4600312BE6311207F0170
:10904000902C5DEFF0128F624AC36001D35038F16B
:10905000F1E4902A8EF0128F62B18A45F0601C9084
:109060002C5DE0902A8B6007B18612C49D8009B107
:1090700086F58285F0837F011222A0902A65E0B4F4
:109080000402E4F0123FDF229028A312CB587B01A8
:109090008B458A46F547EDD394095002A15E128AAA
:1090A000BFFFEDC39F5002A15EE4F54C90121CE09F
:1090B000C454F0FF900435E0FE4FF54E902002EED0
:1090C000F0F1EE9028A3128401540FFF64016007B1
:1090D000EF64086002215CBF081DB17BFF7B0124A7
:1090E0000B12840912C32BFCEF2410F9E43EFAC3DF
:1090F000E99DF9EA9C802AAB45E5472406B1653035
:10910000E70BE547240AB1655407FF80027F007E24
:1091100000AB45E5472409F9E43546FAE92FF9EEB5
:109120003AFAE92402F9E43AFA9028AB1221759050
:1091300028AB123A42FF601F6418601BEF6407609F
:1091400016EFB403179028AB12A78EF9E43AFA127F
:10915000B15012A7C470057FFE12992F7B007A00D0
:109160007945129C87B174B165902101F0E54C44BA
:10917000016062A203E433F544E49028A9F090284A
:10918000A9E0FFC394025020EF12D3B0FF90210159
:10919000E0FEEFB5060A9028A9E024FF92038008BC
:1091A0009028A9E004F080D69028A9E0B40206E552
:1091B0004424FF9203902002E0FDA203E43325E063
:1091C000FFE433FE74B32FF58274213EF583EDF096
:1091D000A203B39203E54C20E20241937F0112AD5A
:1091E000FE9028A512A77C700241939021B6E0FD65
:1091F000B16D7F0312B15DB16DE924B112D352E5B7
:109200004EC4540FFFB16DE924EF128FA99028A529
:1092100012A7A6B16D12D36A121EB9B16D12D35A3C
:10922000E54D121D7A9028A512A5CF121E4154F8C3
:10923000FF902002E0FD12C728B15F30E60FB16D4C
:10924000E924B7128AC24440121D7A8038AB48AA7A
:1092500049A94A121CBB6401702BE92401128AC27D
:1092600064187021E54BB4040EE54A2403F1E6FFCF
:109270001249898F3C800EAB48E54A2402F1E6FF93
:10928000124BBD8F3CB16D12A5AB9002D1E07003C3
:1092900012D1642005028127E54C54426440701EBF
:1092A000902A8EE07002816EE412C346128F62240F
:1092B000BD128AC254F0FD7C00128EB1816EE54C65
:1092C00020E1026190E4F544128F6224B7128AC251
:1092D000540FFFBF010C128F6224BB128AC2F544E7
:1092E000807BEF64087076128F6224E1128AC2FFDD
:1092F000D3940A400A128F6224BD128AC28004905D
:109300002112E09028AAF09028AAE0FE540FFD90C8
:1093100028A9F0BD0F028038EFD3940A4014128FB1
:109320006212C5509028A9E012B640121CBBF54449
:1093300080109028A9E02413F582E43421F583E01D
:10934000F544EE54F0C4540FFF9028A9E0B5070A85
:10935000128F6224BB128AC2F54412CD27128F628B
:109360004A7002816EB174B165654460089020173F
:10937000E07002816EB15F540FFFBF080CE5472417
:109380000AB165540624FF920112C28DC201816E9A
:10939000E54C5422FFBF2015902A8EE07002816EAA
:1093A000B17BFF1282E31280941127816EE54C306D
:1093B000E402816E902017E030E202816EAB45E559
:1093C000472409B165F46018B17BFF128405540F7E
:1093D000FDBD0203D38001C340061282E3128094D4
:1093E000E54C30E30AB17BAA06F97B011289BE2065
:1093F0002C7C12C36F9028A8EFF07A2079107D069C
:1094000012A7FA9028A8E0B173B165FD90283EE557
:109410004BF07B017A207910A3122175AB48AA4941
:10942000A94A12B70D804712A7EEEA494B60139084
:109430002A8AE0600D90200EE06007F1F5E49020AC
:109440000EF0902A65E064037024128F624A701E49
:10945000123D6EE924E2128AC2B173B165B5070EFE
:10946000E54C20E709902A657404F0123C3AE54C7B
:1094700020E409902017E020E202A15E902003E0A2
:109480006002A15C902002E0F544D20612D33712AC
:109490008F797A2179B77F04128F7FAB45E5472416
:1094A0000BB165FF540FFEE547240AB16530E014A7
:1094B0001EEEB4FF06B16144808004B15F547F1298
:1094C0001D7A8021EFC4540FFF14B50617EF12C3A5
:1094D0002EFCAB45E5472410F9E4354612C338604D
:1094E000034344400EAB45E547240BB16554F0FF00
:1094F000EE540F4F121D7AAB45E5472407B165FFC7
:10950000740AD39F4005740A121D7A121CBB24F6FC
:10951000FFAB45E547240AF9E43546FA128F791284
:109520008FD0128F7FC204B174B165FDE547240965
:10953000B165FBC003128FD012BDAEAB45E5472429
:1095400007B16524F59027D3F0A37481F0A37419B3
:10955000F0A374D5F0D003AF4402C8D8C20622AB42
:1095600045E5472405F9E43546FA021CBB9028A5D9
:10957000022155FFAB45E5472404229028A3E0FED5
:10958000A3E022902BD5122155E924E5F9E43AFA1B
:10959000021E417F137D1412CFBCE5131470031219
:1095A0009A0CE4F51290232912D3DB121CBB24FE83
:1095B000601524FE601514601614601714601924D9
:1095C000067055D1ED8051F1D0804DD1388049F1F0
:1095D00051804512C3DB8040D132E92409B18C456A
:1095E000F0602DE5136404600AD132E92401128A87
:1095F000C2F514D132E92409B18CF58285F083AF2C
:10960000141222A0D132E9128FC9E4F5F0121EB96A
:10961000D132E4121D7AC2110512E512C394024040
:1096200084E5116009FD7F0112CF83E4F511221258
:109630001D7A902329022155E5136002C1ECD13235
:10964000E92404128AC290232930E615F1C6FAE40F
:1096500075F064121EB9D1327406121D7AC20480EC
:1096600036122155E92405128AC24420FFD132E97D
:109670002415128FA9D132E912D39CD12FE912D32C
:10968000A512A7FED1327405D12FF1C9FA7407755E
:10969000F0D0121EB9D20490232912A78E128AC2CA
:1096A000FFD132E92403128AC2FDD132E9240BF939
:1096B000E43AFAC003C002C001D132E92406128A9A
:1096C000C2902818F0D132E92404128AC2902819D5
:1096D000F0A3741AF0A37457F0D001D002D0031293
:1096E000A64EEF7007D1327407121D7A22D132E4F0
:1096F000D12FE92405128AC2146003047052D132BA
:10970000E92418128AC2540F902C5AF09023296031
:109710002F122155E92417128AC2FF1247F9EFFDD3
:10972000902C5AE014F075F064A42419FFE435F08D
:10973000CF2DCF3400FED132F1C9FAEE8FF0800682
:10974000F1C6FAE4F5F0121EB9D1327402121D7A94
:1097500022E51324FD602914601624037034F1936C
:109760005030C210D13212AF3D7401121D7A801BED
:10977000D132E92404128AC220E002800ED21022E3
:10978000D132E92403128AC2B51407D13274071208
:109790001D7A22D132E92407B18CFFAEF0AD147CE2
:1097A00000D39DEE9C4009EF9DFFEE9C8FF080035F
:1097B000E4F5F0121EB9D132E92407B18C45F0244A
:1097C000FFB3229028E4122155E92407F9E43A2254
:1097D000E513147010F193500C201109D211D132FD
:1097E0007404121D7A22F9E43549FA021CBBC21630
:1097F00022E4021D7A301D0E12C3F8E4F565D21E74
:1098000075FF0243858022301E10E565600C1565EA
:10981000902C1C112060031258FA22118490249875
:10982000E0FEA3E0FF4E22902C5512354A11FFF0C6
